:020000040800F2
:100000001015002001010008031200083F0E00082F
:1000100001120008C30100081129000800000000B7
:100020000000000000000000000000003D16000875
:100030000902000800000000871500083F160008AC
:100040001B0100081B0100081B0100081B01000820
:100050001B0100081B0100081B0100081B01000810
:100060001B0100081B0100081B0100081B01000800
:100070001B0100081B0100081B0100081B010008F0
:100080001B0100081B0100081B0100081B010008E0
:10009000A92800081B0100081B0100081B0100081B
:1000A0001B0100081B0100081B0100081B010008C0
:1000B0001B0100081B0100081B0100081B010008B0
:1000C0001B0100081B0100081B0100081B010008A0
:1000D0001B0100081B0100081B0100081B01000890
:1000E0001B0100081B0100081B010008DFF80CD0F1
:1000F00000F02AF8004800473529000810150020B4
:100100000648804706480047FEE7FEE7FEE7FEE7B1
:10011000FEE7FEE7FEE7FEE7FEE7FEE7C51600089E
:10012000ED00000840EA01039B0703D009E008C97D
:10013000121F08C0042AFAD203E011F8013B00F8AC
:10014000013B521EF9D27047064C074D06E0E068AD
:1001500040F0010394E8070098471034AC42F6D30E
:10016000FFF7C8FFC0290008E029000870B58C1807
:1001700010F8015B15F0070301D110F8013B2A11BB
:1001800006D110F8012B03E010F8016B01F8016BA8
:100190005B1EF9D12B0705D40023521E0DD401F8A4
:1001A000013BFAE710F8013BCB1A921C03E013F86D
:1001B000015B01F8015B521EF9D5A142D8D30020A2
:1001C00070BDFEE7002070470020704710B5002288
:1001D0000449054801F06AFB0449034801F060FB4B
:1001E000002010BD100E00206C010020100C00201B
:1001F00010B50146034801F053FB024801F034FBFF
:10020000002010BD6C01002070470000014880688C
:1002100070470000440000200248816802781144C1
:100220008160704744000020074810B5016841F024
:1002300010010160032000F09DF8002000F006F896
:1002400000F024F8002010BD0020024070B50D4DD4
:1002500004464FF47A712878B1FBF0F00A49096836
:10026000B1FBF0F000F0D3FD48B9102C07D200220A
:100270002146501E00F05EF800206C6070BD012029
:1002800070BD00004400002050000020214808B547
:10029000816941F001018161816901F001010091F1
:1002A000C16941F08051C161C06900F08050009087
:1002B000032000F05FF8002211466FF00B0000F001
:1002C00039F8002211466FF00A0000F033F80022DE
:1002D00011466FF0090000F02DF800221146501F62
:1002E00000F028F800221146101F00F023F8002229
:1002F0001146901E00F01EF800221146501E00F01C
:1003000019F80548416821F0E06141F00071416051
:1003100008BD0000001002400000014000F01F0274
:10032000012191404009800000F1E020C0F8001157
:1003300070470000F0B40E4B1B680C46C3F3022359
:10034000C3F10705042D00D90425191D072901D281
:10035000002300E0DB1E012606FA05F1491E2140BC
:1003600099409E40761E16403143F0BC00F04ABFD3
:100370000CED00E0064900F0070208684FF6FF03A5
:10038000184040EA0220034A10430860704700000A
:100390000CED00E00000FA0510B50C0605D501F0E3
:1003A0007F0100EB4110283003E000EB411000F525
:1003B0000A7099B232B101228272C180190C018196
:1003C000002010BD002282728180F9E7704700EBA7
:1003D0004112D0F85C04D26B01F02CBC00EB41124E
:1003E000D0F85C04D2F83C2201F079BC10B5044688
:1003F0000A460B0601F07F0004EB401101D52831BD
:1004000001E001F50A710870D009487094F82804D9
:10041000012809D0012084F82804206802F060F83F
:10042000002084F8280410BD022010BD70B50A46D3
:100430000446090602F07F0003D504EB4011283181
:1004400003E004EB421101F50A7100258D7008707C
:10045000D009487094F82804012809D0012084F8B4
:100460002804206802F0EAF884F82854002070BDBF
:10047000022070BD01F00F0100EB4110B0F8440202
:1004800080B2704770B504460D460E0601F07F003D
:1004900004EB401101D5283101E001F50A71087023
:1004A000E80948700A61CB7094F82804012809D043
:1004B000012084F82804206801F0E2FE002084F87E
:1004C000280470BD022070BD70B50C4601F07F0598
:1004D00000EB4511C1E98F230022C1F8442281F8C5
:1004E000292281F8285201F50A716206006802F09B
:1004F000FFF8002070BD70B50D460446090605F0F2
:100500007F0003D504EB4011283103E004EB4511D3
:1005100001F50A7101228A700870E809487094F8A0
:100520002804012807D084F82824206802F0BBF8AA
:10053000680602D006E0022070BD04F22C4120685B
:1005400002F07AF8002084F8280470BD70B50C46DB
:1005500001F07F0500EB4511C1E90F2300224A6439
:10056000012281F8292001F8285F6206006802F064
:10057000BFF8002070BD10B50446006802F09AF97B
:10058000000402D5204600F04DFE206802F092F9EA
:1005900040050CD5206830F8441F21F480610180AB
:1005A000204600F0EDF80021204600F0FEF820681B
:1005B00002F080F9400405D5206830F8441F21F48A
:1005C00080410180206802F075F9800405D520681B
:1005D00030F8441F21F400510180206802F06AF9CC
:1005E000C00414D5206830F8401F21F004010180B8
:1005F000206830F8401F21F008010180204600F0FB
:10060000CCF8206830F8441F21F480510180206824
:1006100002F050F900051AD5206830F8401F41F06B
:1006200008010180206830F8441F21F40061018036
:10063000206830F8401F41F004010180206802F07A
:1006400039F9C043C00402D5204600F0E3F8206821
:1006500002F030F9800508D5206830F8441F21F4F5
:1006600000710180204600F09CF8206802F022F919
:10067000C00505D5206830F8441F21F48071018041
:1006800010BD00002DE9F04186B004004FF00005D8
:1006900004D094F82904002620B108E0012006B017
:1006A000BDE8F08184F82864204600F04BF8032070
:1006B00084F82904206801F0B8FF04F11001142225
:1006C00088466846FFF72EFD94E80F0001F006FF0C
:1006D0000021206802F001F95FF0010704EB4510EA
:1006E00080F8297000F8285F8581C6700661466130
:1006F0006D1C86610F2DF1D35FF0000004EB4011FB
:1007000081F8296281F82802888681F82B62C1F875
:100710003862C1F83C62401CC1F840620F28EDD33A
:10072000142241466846FFF7FDFC94E80F0001F0F3
:100730006DFF84F8246084F82974206801F064FF58
:100740000020ACE708B500680B49884212D10B487D
:10075000C16941F40001C161C069002200F40000D8
:10076000009011461420FFF7E5FDBDE80840142075
:10077000FFF7D4BD08BD0000005C0040001002403F
:1007800010B504460121D0F85C0401F093FBD4F8C5
:100790005C04BDE8104001F05CBBD0F85C0401F0E3
:1007A00077BBD0F85C0401F079BB10B5044690F833
:1007B000280401280BD0012084F8280484F8241090
:1007C000206802F08CF8002084F8280410BD022074
:1007D00010BDD0F85C2400F22C41104601F07DBB26
:1007E00010B5044690F82804012810D0012084F8A0
:1007F000280401462046FFF7E9FD206801F002FFCA
:10080000206802F04AF8002084F8280410BD022075
:1008100010BD000010B50446D0F85C0401F0AAFB3E
:10082000A069002804D00348016841F00601016076
:1008300010BD000010ED00E02DE9F84305460078FA
:10084000354CC00754D0E0690026C00008D4E069E8
:1008500040F08050E061E069012600F08050009097
:100860002E480168C90512D40168804641F48071A0
:100870000160FFF7CBFC074605E000BFFFF7C6FCB1
:10088000C01B642823D8D8F80000C005F6D5206A1C
:1008900010F4407021D0A98801F4407181421CD02D
:1008A000206A1F49012220F440700A6000220A6079
:1008B0002062C00711D0FFF7A9FC074641F2883833
:1008C00008E000BFFFF7A2FCC11B414502D903208D
:1008D000BDE8F883206A8007F4D5206A696820F4AF
:1008E0004070084320621EB1E06920F08050E06152
:1008F0002878800705D56068A96820F4404008433F
:1009000060602878C00605D56068E96820F480003A
:10091000084360600020DBE70010024000700040E8
:10092000400442422DE9F047DFF83C8105460E467F
:10093000D8F8000000F00700B0420CD2D8F8001040
:1009400021F007013143C8F80010D8F8000000F08A
:100950000700B04263D12878444C800705D5606811
:10096000A96820F0F000084360602878C00745D0EF
:100970006868012816D02168022816D08907002946
:100980004DDA616821F0030101436160FFF73EFC2D
:100990006968074641F2883001290FD00229814653
:1009A00019D027E021688903E9E78901E7E700BF5B
:1009B000FFF72CFCC11B494501D918E0814660684E
:1009C000C0F381000128F3D118E000BFFFF71EFC3F
:1009D000C11B49450BD86068C0F381000228F5D1DE
:1009E0000CE000BFFFF712FCC11B494502D90320F0
:1009F000BDE8F087606810F00C0FF3D1D8F8001054
:100A0000404601F00701B1420BD9016821F007010E
:100A100031430160006800F00700B04201D00120BE
:100A2000E6E72878400705D56068E96820F4E060CB
:100A3000084360602878000706D56068296920F4BB
:100A4000605040EAC100606000F01CF86168084A2C
:100A5000C1F30311515CC840064908600020FFF74C
:100A6000F5FB0020C4E70000002002400010024017
:100A7000A8290008500000200148006870470000C5
:100A80005000002012A185B00FC98DE80F0014A0FE
:100A9000144A006804905168134801F00C03042BB9
:100AA00010D0082B0ED1C1F38343C9031DF80300F6
:100AB0000AD5516804AAC1F34041515C0A4A504327
:100AC000B0FBF1F005B0704708494843FAE7000071
:100AD00002030405060708090A0B0C0D0E0F10107F
:100AE000010200000010024000127A0000093D00DF
:100AF0002DE9F84F04460078B94DC00748D0686822
:100B0000C0F38100012807D06868C0F38100022883
:100B100009D16868C00306D52868800338D56068A5
:100B200000286FD034E06068B0F5803F0BD010B182
:100B3000B0F5A02F11D0286820F4803028602868F4
:100B400020F4802002E0286840F48030286060684B
:100B500088B1FFF75BFB064609E0286840F4802077
:100B60002860F0E7FFF752FB801B642875D82868DF
:100B70008003F7D50CE0FFF749FB064605E000BF10
:100B8000FFF744FB801B6428F0D828688003F7D463
:100B90002078944E80074FF001094FF000083BD5B4
:100BA000686810F00C0F07D06868C0F38100022855
:100BB00009D16868C00306D42868800714D5206965
:100BC00001281FD110E02069B0B1C6F80090FFF7EE
:100BD0001DFB074605E000BFFFF718FBC01B0228FE
:100BE000C4D828688007F7D52868616920F0F80024
:100BF00040EAC10028600FE0C6F80080FFF706FB5E
:100C0000074606E0E9E000BFFFF700FBC01B022833
:100C100023D828688007F7D4207800072CD572489D
:100C2000A169D9B1C0F80090FFF7F0FA074604E0D7
:100C3000FFF7ECFAC01B02280FD8686A8007F7D5C7
:100C40006A484FF4FA510068B0FBF1F0009000BF21
:100C50000098411E0091FAD20EE080E0C0F80080BA
:100C6000FFF7D4FA074604E0FFF7D0FAC01B0228CA
:100C700075D8686A8007F7D42078400760D5E8699E
:100C80000027C00008D4E86940F08050E861E869B6
:100C9000012700F08050009055480168C90513D421
:100CA0000168834641F480710160FFF7AFFA824624
:100CB00006E000BFFFF7AAFAA0EB0A0064284ED8AE
:100CC000DBF80000C005F5D5E06801280AD008B1BE
:100CD000052813D0286A20F001002862286A20F035
:100CE000040002E0286A40F001002862E06841F256
:100CF000883B98B1FFF78AFA82460BE0286A40F0F9
:100D000004002862EEE700BFFFF780FAA0EB0A01BB
:100D100059455AD8286A8007F6D50CE0FFF776FACD
:100D2000824605E0FFF772FAA0EB0A0159454CD85C
:100D3000286A8007F6D41FB1E86920F08050E86186
:100D4000E06988B36968C1F38101022945D00228AE
:100D5000C6F8608004D0FFF759FA044638E034E062
:100D6000FFF754FA074604E0FFF750FAC01B0228C9
:100D70002BD828688001F7D4206AB0F5803F05D1D0
:100D80006868A16820F4003008436860D4E908016D
:100D90000843696821F4741108436860C6F86090DC
:100DA000FFF734FA044606E015E000BFFFF72EFA1D
:100DB000001B022809D828688001F7D50BE000BF86
:100DC000FFF724FA001B022802D90320BDE8F88FA0
:100DD00028688001F4D40020F8E70120F6E700003D
:100DE00000100240000042428004424250000020B5
:100DF000007000404FF0E0210428086903D020F083
:100E000004000861704740F00400FAE7704710B52D
:100E1000401EB0F1807F01D3012010BD4FF0E024CF
:100E200060610F21601700F0EDF90020A06107203C
:100E30002061002010BD10B5FFF7E8FF10BDFEE7F0
:100E4000F0B50A68C2F30F2595FAA5F2B2FA82F35B
:100E500069E001229A402A4264D0082B03D240F272
:100E600001129A4006E0A3F108024FF001149440E9
:100E700044F0806292FAA2F700EB1264B7FA87F7A7
:100E80004FEA870C0F27266807FA0CF7BE4392FA41
:100E9000A2F7D1F804E0B7FA87F7BF000EFA07FE11
:100EA00046EA0E0626600E69C7684FEA122C9CFAC5
:100EB000ACFCBCFA8CFC27EA122706FA0CF6374386
:100EC000C7604E68012E01D0092E2BD192FAA2F7ED
:100ED000B7FA87F74FEA870C032707FA0CF726685B
:100EE000D1F808E0BE4392FAA2F7B7FA87F7BF003D
:100EF0000EFA07FE92FAA2FC46EA0E06BCFA8CFC39
:100F00004FEA8C0E4FF0040C26600CFA0EFC92FA9D
:100F1000A2F2B2FA82F2CF68920026EA0C0697405B
:100F20003E4326605B1C35FA03F292D10120F0BDEE
:100F300030B5214C4568B1FBF4F425F03F0525435D
:100F400045601E4DAA4207D94FF4967504FB05F47F
:100F50004FF47A75B4FBF5F4056A04F1010425F049
:100F60003F0544EA0504046213D96BB102EBC204E5
:100F700004EB0212B1FBF2F4240508D0B1FBF2F14C
:100F8000194341F400410FE002EB4202F2E7012174
:100F9000F6E75200B1FBF2F3C3F30B03042B01D2CB
:100FA000042101E0B1FBF2F1C2694CF6FF739A43F0
:100FB0000A43C26130BD000040420F00A08601001C
:100FC0007FB5044600680D4620F0010020606846A9
:100FD00000F022F8D5E9012320460299FFF7A8FF87
:100FE0006969E868A26848F2FF339A4308430243FC
:100FF000A2602868216821F01A010143216020685D
:1010000040F0010020602869216821F480610143DB
:10101000216004B0012070BD00B5034600F0DEFA87
:10102000186000F0B1FA586000F0BCFA9860586897
:1010300000F0C6FAD86000BD0FB50A0A8DF804208A
:101040008DF808103A498A69C2F34002002AFAD1A1
:101050000A6842F480720A604A6912F0010FFBD0FC
:101060000A6922F0FF0202430A614A69C2F34002A0
:10107000002AFAD04A6903928A6903924A69C2F344
:10108000C012002AFAD09DF804200B6923F0FF0358
:1010900013430B614A69C2F3C012002AFAD09DF8CB
:1010A00008200B6923F0FF0313430B614A69C2F365
:1010B000C012002AFAD00A6842F480720A604A69B3
:1010C00012F0010FFBD00A6940F0010022F0FF028C
:1010D00002430A614869C0F340000028FAD0486919
:1010E000019088690190086840F480600860486950
:1010F000C0F380100028FAD008698DF80000486914
:10110000C0F380100028FAD008698DF80400086840
:1011100020F480600860086840F4007008609DF862
:1011200004009DF8001004B040EA012000BD00005A
:101130000054004010B58CB01D480690092007905F
:10114000032008900420099006A91A48FFF778FEAA
:101150001948416841F0020141601848C16941F4F1
:101160000011C161C069164C00F400100B90E068DA
:1011700020F00100E060206820F04000206020683E
:1011800020F08000206000200E490290CDE900018F
:101190000390201504900001059069462046FFF752
:1011A0000FFFE06820F0FE00E0600CB010BD000012
:1011B00003000304000C0140000001400010024045
:1011C00000540040801A060010B500220849094862
:1011D00000F0FBFC0849074800F0F9FE0749054804
:1011E00000F056FBBDE81040024800F03DBF000093
:1011F000000000206C010020340100203400002099
:10120000FEE770470907090E002806DA00F00F0014
:1012100000F1E02080F8141D704700F1E02080F814
:10122000001470472DE9FC5F4FF000080446ADF84C
:101230000480ADF8008048F60F7B4FF002094FF4B0
:10124000806692E1BDF8041011F00F072BD030F842
:101250002710ADF80010BDF80010090478D530F85B
:10126000272040F68F710A4020F8272004EB47150D
:1012700095F8320205F50A750028206869D02978AA
:1012800030F8212052047DD5B0F8503009EBC1016F
:10129000194406EB4101415AC1F309015FEA010A11
:1012A00071D0EA88D0E0BDF80410C9062AD40188BC
:1012B00001EA0B010180206804F12805B0F85020F4
:1012C0002B7809EBC301114406EB4101405AC0F3EE
:1012D00009006064E16B0844E06300212046FFF7E9
:1012E00076F894F824000028ABD0A8690028A8D18B
:1012F00094F82400216840F08000A1F84C0084F8A4
:10130000248032E1018804F50A75ADF80010BDF8BB
:10131000001009051ED5B0F850302978062202EBDE
:10132000C101194406EB4101405A04F22C41C0F3BB
:101330000903EB61AA88206801F0C0FA20680188DF
:1013400040F68F72114001802046FFF742FA0CE10F
:10135000A0E055E0BDF800100904D2D5028840F69F
:101360008F710A4002802068B0F850302978062238
:1013700002EBC101194406EB4101405A83059B0D64
:10138000EB6101E051E063E008D0AA886969206858
:1013900001F094FAE969686908446861002120460F
:1013A000FFF71CF82068B0F85010891D06EB4101CA
:1013B000014428693E280CD9C0F34F12C00601D160
:1013C000521E92B24FF6FF7000EA822040F40040B5
:1013D00009E0C0F34F02C00701D0521C92B24FF691
:1013E000FF7000EA82200860216808884BF68F723F
:1013F000104080F4405048F2800210430880B4E06E
:10140000B0F850202B78062101EBC301114406EB04
:101410004101415AC1F309015FEA010A24D0AA88B7
:101420005346696901F04AFA1EE0B0F850200623DD
:1014300003EBC101114406EB4101415AC1F309011B
:101440005FEA010A04D02A895346696901F036FA35
:101450002978206830F8213048F68F72134048F21E
:10146000C002134320F82130E96901EB0A00E8616A
:10147000696901EB0A026A61AB6913B128695045D9
:1014800004D929782046FEF7A9FF03E029782046F1
:10149000FFF71AF8BDF80000000666D5206804EBD7
:1014A000471530F8271001EA0B0120F8271095F8AE
:1014B000320028350028206812D0297830F8212001
:1014C000B0F8503052061ED509EBC101194406EBA5
:1014D0004101405A83059B0DEB6124D0EA881EE050
:1014E000B0F850302A7809EBC201194406EB4101EB
:1014F000405A83059B0DEB6121D0AA886969206859
:1015000001F0F3F91BE0062202EBC101194406EBDE
:101510004101405A83059B0DEB6104D02A8969691A
:10152000206801F0E2F92978206830F8212048F697
:101530008F731A404CF280031A4320F82120206850
:10154000B0F850202B7809EBC301114406EB4101A0
:10155000405AC0F30900E86169690A186A6129788C
:10156000AB69204663B1FEF7F1FF2068B0F8441084
:10157000ADF8041009043FF565AE0020BDE8FC9FFE
:10158000FEF725FFF1E7704704494968044A01F076
:10159000F0010909515CC84070470000001002408A
:1015A000A829000804494968044A01F4E06102EBF3
:1015B00011210978C840704700100240B82900087E
:1015C00004494968044A01F4605102EBD1210978C9
:1015D000C840704700100240B8290008064840681B
:1015E00010F00C01054805D0042903D0082901D1C9
:1015F00000F006B8704700000010024000127A00A8
:101600000B48416811F480320A4909D0B2F5803F95
:1016100006D14168084A01F40031491CB2FBF1F1DE
:101620004068022200F4701002EB9040484370477B
:101630000010024000093D0000127A00704710B50A
:10164000FEF7EAFDBDE81040FFF7F5BB30B593B0FB
:1016500001210804CDE90010002402940225049120
:10166000CDE90750000109906846FFF741FA00B143
:10167000FEE70F20CDE90A054FF48060CDE90C406C
:1016800001210AA80E94FFF74DF900B1FEE71020E2
:101690000F90800412900FA8FFF7CEF800B1FEE77C
:1016A000FFF7EAF94FF47A71B0FBF1F0FFF7AFFB07
:1016B0000420FFF79FFB00221146501EFEF73AFE62
:1016C00013B030BD0D48016841F00101016041686F
:1016D0000B4A1140416001680A4A114001600168EB
:1016E00021F480210160416821F4FE0141604FF442
:1016F0001F0181600449C003086070470010024068
:101700000000FFF8FFFFF6FE08ED00E0D0F8180239
:1017100020B10021C0F8141208467047022070471B
:1017200070B50546D0F8184200F00EFBC4F80C0264
:10173000D5F8180248B1D5F81C12D4F80402CA68CA
:1017400004F503719047002070BD022070BD70B594
:1017500004460025812100F05DFA0121204600F0B9
:1017600059FA8221204600F055FAD4F8180250B1F7
:10177000D4F81C0204F5067440688047206800F025
:1017800079FD00202060284670BD10B5D0E9864163
:1017900059B194F80002FF2807D08B6894F8012211
:1017A00021469847FF2084F80002002010BD000069
:1017B0000A210180004870475C000020432101801D
:1017C00000487047AC00002043210180004870476A
:1017D000680000204321018000487047F00000208D
:1017E0002DE9F0410446007C00254FF4007670B3EB
:1017F000402302228121204600F008FB40230222E0
:101800000121204600F002FB08230322822120460A
:1018100000F0FCFA4FF4077000F02EFDC4F8180237
:10182000F0B10746D4F81C02006880470020C7F8D2
:101830001402C7F81802207CD7F8042290B1402384
:101840000121204600F0F5FA2846BDE8F081FFE7C7
:10185000334602228121204600F0D8FA3346CEE7F3
:101860000125F1E73346EBE710B5D0F8181269B15E
:10187000027C002AD1F8042205D04023012100F087
:10188000D8FA002010BD4FF40073F7E7022010BD16
:1018900002460220002902D00020C2F81C12704724
:1018A000D0F81802C0F8041200207047D0F81802CF
:1018B000C0F81022C0F808120020704770B5064624
:1018C000D0F8185208780C4610F0600121D0202979
:1018D00027D1E288AAB10006607807D5D6F81C1295
:1018E0008B6829469847E288294617E085F8000268
:1018F000A07985F80102E2882946304600F038F8E0
:101900000FE0D6F81C12607800228B6821469847B9
:1019100007E060780A2804D103490122304600F02C
:1019200041F8002070BD00005800002010B5D0F82C
:10193000142252689047002010BD134610B50A4685
:10194000002100F076FA002010BD134610B50A46BB
:10195000002100F018FB002010BD10B504468021C6
:1019600000F0E8FA2046BDE81040002100F0E2BA9D
:1019700010B50323C0F80821C0F8F431C0F80C21D9
:1019800013460A46002100F054FA002010BD10B59D
:1019900005210023C0F8F4111A46194600F049FA4F
:1019A000002010BD10B502238261C0F8F431C2617D
:1019B00013460A46002100F0E6FA002010BD10B5DB
:1019C00004210023C0F8F4111A46194600F0DBFA8E
:1019D000002010BD10B50A46024903A000F0D2F85D
:1019E000004810BD100A002043444320436F6E6638
:1019F000696700001220088000487047200000201E
:101A000010B50A46024903A000F0BCF8004810BD1A
:101A1000100A002043444320496E74657266616376
:101A20006500000004200880004870471C0000206A
:101A300010B50A46024903A000F0A4F8004810BD02
:101A4000100A0020416E6E61277320546865726D24
:101A5000616C2043616D65726100000010B50A463B
:101A6000024903A000F08EF8004810BD100A0020C3
:101A7000546865726D616C2043616D657261000030
:101A800010B50A46024903A000F07CF8004810BDDA
:101A9000100A0020303030303030303030303141BA
:101AA00000000000F8B5044648880D46010A0829E0
:101AB0004BD2DFE801F04A0409174A4A4048D4F8FB
:101AC0001012207C0A6832E0207C02260028D4F81C
:101AD000140205D0C16A684688470146467041E055
:101AE000816AF8E7C0B206282FD2DFE800F00308C9
:101AF0000D12171CD4F81012207C4A6817E0D4F895
:101B00001012207C8A6812E0D4F81012207CCA6877
:101B10000DE0D4F81012207C0A6908E0D4F8101205
:101B2000207C4A6903E0D4F81012207C8A69694657
:101B30009047014616E0207C38B9D4F81402416B76
:101B400068468847F5E7207C20B129462046FFF704
:101B500004FFF8BDD4F81402016B684688470146BB
:101B600007204870BDF800000028F2D0EA88002A5B
:101B7000EFD0824200D90246ADF800202046FFF7A0
:101B800011FFF8BD70B5002300281DD004460025C4
:101B900002E06D1CEDB2641C2678002EF9D10224FF
:101BA00004EB45041480CC545B1C0322CA5400246B
:101BB0005B1C06E0CA545B1CDAB28C54521CD3B2D4
:101BC000401C0278002AF5D170BD10B580B1D0F864
:101BD000143213B10023C0F8143209B1C0F8101246
:101BE000012180F8FC11027000F0B2F8002010BD55
:101BF000022010BD10B50024D0F82002FEF716FC1C
:101C000030B1012801D0022801D0022400E00124D3
:101C1000204610BD10B50024D0F82002FEF7E6FBE8
:101C200030B1012801D0022801D0022400E00124B3
:101C3000204610BD2DE9F0411746044641B1D4F8C5
:101C4000140242698AB394F8FC01032842D043E0AD
:101C5000D4F8F411002504F11400022933D1D0E99D
:101C600002639E4207D9F31A83609AB2394620462E
:101C7000FFF76BFE12E04068B0FBF3F103FB1101CC
:101C8000A1B9984212D3D4F8F81188420ED200229A
:101C900011462046FFF759FEC4F8F85100231A46B2
:101CA0001946204600F0C5F80DE012E0D4F8140201
:101CB000C16829B194F8FC01032801D12046884766
:101CC0002046FFF764FE94F80002012804D184F84E
:101CD000005201E0204690470020BDE8F08170B539
:101CE0001546044641B1D4F8140282693AB394F817
:101CF000FC01032824D025E0D4F8F41104F5827007
:101D000003291FD1D0E902218A420BD9531A8360DB
:101D10000846834200D303469AB229462046FFF77D
:101D20000CFE0FE0D4F81402016929B194F8FC010B
:101D3000032801D1204688472046FFF740FE01E0F6
:101D400020469047002070BDD0F82002FEF792BBDD
:101D500010B520490446C1F85C04C0F820121E48A2
:101D6000086008204860022088600320C8600020C6
:101D70008861C86108620846FEF784FC20B14FF410
:101D8000977116A000F0C5FD0022D4F82002182398
:101D9000114604F50874FEF7FFFA5823002280214B
:101DA0002068FEF7F9FAC023002281212068FEF79F
:101DB000F3FA4FF48873002201212068FEF7ECFA51
:101DC0004FF48073002282212068FEF7E5FA00209C
:101DD00010BD0000B0050020005C00402E2E2F53E7
:101DE00072632F757362645F636F6E662E630000AB
:101DF0000A06D0F8200201F07F0100EB411002D565
:101E000090F82A00704790F82A02704770B51D4676
:101E100013460024D0F820022A46FEF733FB30B1E7
:101E2000012801D0022801D0022400E0012420462C
:101E300070BD10B50024D0F82002FEF745FB30B18C
:101E4000012801D0022801D0022400E0012420460C
:101E500010BD70B50022044640231146FFF7D6FF9F
:101E600040252B46002280212046C4F81051FFF760
:101E7000CDFF0120256284F8FC01D4F8180228B1B6
:101E8000D4F814022179426820469047002070BDA2
:101E900090F8FD1180F8FC110020704710B590F803
:101EA000FC11032904D1D0F81412C96901B1884783
:101EB000002010BD01740020704710B50024D0F838
:101EC0002002FEF772FC30B1012801D0022801D0B7
:101ED000022400E00124204610BD70B5044600F540
:101EE0000270054600F05FF80120C4F8F401B4F870
:101EF0000E02C4F8F80194F8080210F01F010AD08D
:101F000001290DD0022910D000F08001204600F0F8
:101F100011F8002070BD2946204600F0AAF8F8E725
:101F20002946204600F08CF9F3E72946204600F0C8
:101F300019F9EEE710B50024D0F82002FEF7DBFA1D
:101F400030B1012801D0022801D0022400E0012490
:101F5000204610BD10B50024D0F82002FEF740FC4A
:101F600030B1012801D0022801D0022400E0012470
:101F7000204610BD90F8FC1180F8FD11042180F876
:101F8000FC110020704710B50024D0F82002FEF7A5
:101F9000DDFA30B1012801D0022801D0022400E08E
:101FA0000124204610BD0A7802704A7842708A786F
:101FB000CB7802EB032242800A794B7902EB0322B1
:101FC00082808A79C97902EB0121C180704702467B
:101FD000002011B1C2F8141270470220704710B5EA
:101FE000D0F8142202241AB11268904700B90024D4
:101FF000204610BD70B50E461A4D897804462970EA
:10200000012928D894F8FC01022802D0032822D103
:1020100005E099B10320616084F8FC0109E091B109
:10202000606888420AD0C1B22046FFF77FFC297859
:1020300061602046FFF7D3FF02280CD02046BDE8A0
:102040007040FFF7BCBC022084F8FC0120466160B0
:10205000FFF76CFCF2E731462046BDE87040FFF721
:102060007CBC00005400002010B5FFF773FF002077
:1020700010BD2DE9F04100264B78012532460A2B90
:1020800043D2DFE803F03C584251420805422A2778
:10209000FFF708FD63E004468888C8B9C888B8B966
:1020A000887800F07F0794F8FC01032810D084F8AA
:1020B000FE7139462046FFF700FF2046FFF77FFC00
:1020C0001FB1022084F8FC0149E084F8FC5146E08D
:1020D00020461AE0FFF78EFF41E0CB88012B14D198
:1020E00090F8FC31022B02D0032B0ED104E0826069
:1020F000012200F1080114E00122011D11E090F815
:10210000FC21022A04D0032A02D0FFF726FC26E095
:10211000C560D0F8041209B10321C160022200F1A8
:102120000C01FFF73FFC1AE004464888012816D14D
:10213000C4F804520BE0044690F8FC01022801D0D8
:102140000328C5D14888012809D1C4F80422D4F84D
:1021500014028268204690472046FFF730FC304644
:10216000BDE8F08170B50D4604462878002609794F
:10217000C0F34110012806D06878A0B301281FD011
:1021800003283FD107E0D4F814022946826820468C
:102190009047002070BD94F8FC01022817D0032856
:1021A0002CD1688828B921B1802902D02046FFF7B8
:1021B000C1FED4F81402294682682046904713E0F5
:1021C00094F8FC01022802D0032817D103E0C9B11A
:1021D00080291BD116E06888A0B9480604D02046A3
:1021E000FFF708FDE5E703E02046FFF7E8FB09E01D
:1021F00094F8FC01022807D003280BD0294620467A
:10220000FFF7ABFB304670BD4806FBD02046FFF71A
:1022100091FEF7E7080601F07F0004EB001501D5F9
:10222000143501E005F582752046FFF7E1FD00B1A8
:1022300001202860022229462046FFF7B3FBE1E790
:1022400070B5054690F8FC010C4603280DD12079A5
:1022500001280AD8D5F81402826828469047E088F9
:1022600030B92846FFF7ABFB02E02846FFF775FBC5
:10227000002070BD704700000048704790030020A8
:102280002DE9F047CC780A7848F68F1334B1012C49
:102290006DD0022C08D0032C13D10BE030F8224073
:1022A0001C4044F400730AE030F822401C4020F83F
:1022B000224006E030F822401C4044F4C06320F87D
:1022C00022300C7830F8245048F68F72154048F2CE
:1022D00080031D43254320F824508D7A48F6BF79AA
:1022E00004274BF68F7A48F2C0044CF28006EDB317
:1022F0000D7830F825C048F280180CEA020C4CEA40
:10230000080C20F825C0CD88B0F850C025F0010594
:1023100091F800800CEBC80C00EB4C0CCCF800548E
:102320000D89B0F850C025F0010591F8008007EB49
:10233000C807674400EB4707C7F800544D78002DE5
:102340000D7830F825704FEA47477DD0002F05DA29
:1023500030F825701740374320F825700D7830F895
:1023600025707F0608D530F8257001E024E01DE0D7
:102370001740274320F825700C7830F8245015407A
:10238000354320F824500C7830F8242002EA090262
:102390001A4320F824200A7830F8221001EA0A01B2
:1023A000194320F822100020BDE8F08730F82240C1
:1023B0001C4044F4806382E74D78F5B18D88B0F815
:1023C000506025F001050F7806EBC70600EB4606C6
:1023D000C6F800540D7830F82560760605D530F83B
:1023E00025601640264320F825600A7830F8221030
:1023F00001EA090181F02001D2E78C88B0F8505041
:1024000024F0010491F800C007EBCC073D4400EB39
:102410004505C5F80044B0F850400D78062707EB95
:10242000C5052C4400EB44070C694FF6FF7C07F50B
:1024300080673E2C0CD9C4F34F15E40601D16D1E04
:10244000ADB20CEA852400E01EE044F4004407E04D
:10245000C4F34F05E40701D06D1CADB20CEA85242E
:102460003C600C7830F824506D0405D530F82450C9
:102470001540354320F824500A7830F8221001EA3C
:102480000A0181F440518BE7002F05DA30F82570FE
:102490001740374320F825700D7830F82560760610
:1024A00005D530F825601640264320F825600E78C3
:1024B00030F826501540254320F826500C7830F887
:1024C000242002EA0A0282F440521A4320F824200F
:1024D0000A7830F8221001EA090161E7002070470C
:1024E0002DE9F04391F80A8091F801C00A7848F686
:1024F000BF774BF68F7948F2800348F2C0054CF263
:10250000800648F68F74B8F1000F2ED0BCF1000F92
:1025100030F822C04FEA4C4C4ED0BCF1000F07DA25
:1025200030F822C00CEA040C4CEA060C20F822C059
:102530000A7830F822C05FEA4C6C07D530F822C028
:102540000CEA040C4CEA050C20F822C00A7830F89A
:1025500022502540354320F822500C7830F82420B2
:102560003A401A4320F824201BE0BCF1000F0ED0A3
:1025700030F82260760605D530F8226026402E43DA
:1025800020F822600A7830F8221039400EE030F846
:1025900022506D0405D530F822502540354320F8EF
:1025A00022500A7830F8221001EA0901194320F874
:1025B00022100020BDE8F083BCF1000F07DA30F8EC
:1025C00022C00CEA040C4CEA060C20F822C00A785F
:1025D00030F82260760605D530F8226026402E437A
:1025E00020F822600E7830F8262022402A4320F876
:1025F00026200C7830F8242002EA09021A4320F839
:102600002420BFE7002070470020704700B501215B
:10261000A0F840100021A0F84010A0F84410A0F845
:10262000501000F03AF9002000BD30F8401F21F4AE
:102630003D410180002070470020704730B54D7843
:102640000A78002D48F68F7430F8225048F2800343
:1026500012D06D0607D530F82250254048F2C0044C
:10266000254320F822500A7830F8221048F6BF742B
:10267000214081F0300111E06D0407D530F822507F
:1026800025404CF28004254320F822500A7830F887
:1026900022104BF68F74214081F44051194320F8E9
:1026A0002210002030BD10B50A7848F2800352B1E4
:1026B0004978002930F8221010D048F6BF74214024
:1026C00081F010010FE001884BF6BF72114081F4D8
:1026D000805181F010011943018007E04BF68F749F
:1026E000214081F48051194320F82210002010BDB0
:1026F0002DE9F0410D460646896995F801C0002391
:10270000AA7A022728690C4648F28008BCF1010F1A
:1027100005D0814252D90446081AA8614FE081428F
:1027200003D90446081AA86100E0AB617AB12878A1
:1027300036F820104906B6F8501007EBC0000844E0
:1027400006EB4000C0F8004412D52A8911E0A3B27C
:10275000AA883046696900F0C8F8B6F850002978B0
:1027600007EBC101084406EB4000C0F800441CE040
:10277000EA88A3B23046696900F0B7F8687848F68D
:102780008F7110B1012807D00FE0287836F820208B
:102790000A4048F2C00105E0287836F820200A40B7
:1027A0004CF280010A4326F82020297836F82100CF
:1027B00048F6BF72104080F0300067E0AB6106233E
:1027C0004FF6FF701AB1BCF1000F1BD056E0B6F8FF
:1027D00050102A783E2C03EBC202114406EB410252
:1027E00002F5806239D9C4F34F11E30632D000BF3D
:1027F00000EA812040F4004002E000BF00EA8120AE
:1028000010603BE0B6F850102A783E2C07EBC2026D
:10281000114406EB410202F580620BD9C4F34F115B
:102820005FEAC46C01D1491E89B200EA812141F4FA
:10283000004108E0C4F34F015FEAC47C01D0491CA9
:1028400089B200EA8121116069780029BFD001298D
:102850000AD013E0491E89B2CAE7C4F34F01E30767
:10286000CCD0491C89B2C9E7B6F85000297807EBEB
:10287000C101084406EB4000C0F80044297836F84E
:1028800021004BF68F72104080F4405040EA08005F
:1028900026F821000020BDE8F08130F8401F41F407
:1028A0003F410180002070470148FDF764BE0000F1
:1028B000B0050020B0F84400704700005B1C00EB3E
:1028C00042005B0800F5806006D000BF30F8042BA2
:1028D00021F8022B5B1EF9D170470020704711B917
:1028E0008021A0F84C100020704710B55B1C00EB55
:1028F00042005B0800F5806009D011F8012B5B1ED7
:1029000011F8014B42EA042220F8042BF5D110BD46
:10291000FEE7FEE702E008C8121F08C1002AFAD14C
:1029200070477047002001E001C1121F002AFBD14F
:102930007047000086B0FDF777FCFEF787FE194868
:10294000816941F020018161816901F020010091DC
:10295000816941F004018161816901F00401009104
:10296000816941F008018161806900F008000090F0
:10297000FEF7E0FBFEF728FC42F207416620FEF777
:102980005BFBADF8000042F208416620FEF754FB05
:10299000ADF8020042F209416620FEF74DFBADF8AA
:1029A0000400FEE7001002400000000000000000EC
:1029B00001020304060708090000000001020304E5
:1029C000E0290008000000206C0100006C010008F4
:1029D000A02A00086C010020A4130000242900088C
:1029E00013F5191408251A1B0831041A5D041A81FD
:1029F000041AD5141A010817040309041201140259
:102A0000020216408304405726020102030113CD3F
:102A1000011B08C9041AC5041AF104191311821004
:102A200084A24A04130A0632022A40201C090243E7
:102A30003F111CC032091F1B01020B130524161085
:102A400001052401100901042402020524061701CE
:102A500007058203081C10090475320A1D070501C9
:102A600002432C070581070938442A40072A8107B9
:102A7000112B0907440A2204440A16FF4413E117E4
:102A80001B084F0413BD1842081A8B0C1A0D041AA8
:102A90002104C12AC92419041AD5041AB10400005A
:04000005080000ED02
:00000001FF
