:020000040800F2
:1000000068150020010100082B180008F7130008EC
:1000100029180008C3010008B52E000800000000E0
:10002000000000000000000000000000B11B0008FC
:100030000902000800000000AF1B0008B31B000805
:100040001B0100081B0100081B0100081B01000820
:100050001B0100081B0100081B0100081B01000810
:100060001B0100081B0100081B0100081B01000800
:100070001B0100081B0100081B0100081B010008F0
:100080001B0100081B0100081B0100081B010008E0
:100090004D2E00081B0100081B0100081B01000871
:1000A0001B0100081B0100081B0100081B010008C0
:1000B0001B0100081B0100081B0100081B010008B0
:1000C0001B0100081B0100081B0100081B010008A0
:1000D0001B0100081B0100081B0100081B01000890
:1000E0001B0100081B0100081B010008DFF80CD0F1
:1000F00000F02AF800480047D92E000868150020B3
:100100000648804706480047FEE7FEE7FEE7FEE7B1
:10011000FEE7FEE7FEE7FEE7FEE7FEE7691C0008F4
:10012000ED00000840EA01039B0703D009E008C97D
:10013000121F08C0042AFAD203E011F8013B00F8AC
:10014000013B521EF9D27047064C074D06E0E068AD
:1001500040F0010394E8070098471034AC42F6D30E
:10016000FFF7C8FFBC2F0008DC2F000870B58C1803
:1001700010F8015B15F0070301D110F8013B2A11BB
:1001800006D110F8012B03E010F8016B01F8016BA8
:100190005B1EF9D12B0705D40023521E0DD401F8A4
:1001A000013BFAE710F8013BCB1A921C03E013F86D
:1001B000015B01F8015B521EF9D5A142D8D30020A2
:1001C00070BDFEE7002070470020704710B5002288
:1001D0000449054801F03CFE0449034801F032FEA1
:1001E000002010BD640E0020C0010020640C00201F
:1001F00010B50146034801F025FE024801F006FE55
:10020000002010BDC00100207047000070B50446FA
:1002100000F0ECF80546601C02D004480078044465
:1002200000F0E4F8401BA042FAD370BD4400002067
:100230002DE9F84FDFF890A100220AF1040B1446D3
:1002400001274FF00F090BF1040E00BF0B6807FAEE
:1002500004F52B40AB4274D1DFF870C14E68A6EBB9
:100260000C0866452BD00DDC032E34D005DC36B3EC
:10027000012E19D0022E2FD11BE0112E16D0122ED6
:100280002AD119E0B8F5881F19D006DCB8F5803FEF
:1002900015D0B8F5801F1FD111E0B8F5001F0ED0A2
:1002A000B8F5041F18D10AE0CA6815E0CA68121D23
:1002B00012E0CA6808320FE0CA680C320CE08A68A3
:1002C0002AB1012A4FF0080203D0456104E004225C
:1002D00002E0056100E00022FF2B01D8064601E0A4
:1002E00000F104064FEA840501D9A5F12005D6F8EE
:1002F00000C009FA05F82CEA080C02FA05F54CEAE8
:10030000050CC6F800C04D68ED0057D5304DAE69FC
:1003100046F00106AE61AD6924F0030605F0010563
:1003200000952C4D06EB050CDCF80850A6074FEAAB
:10033000167809FA08F6B543274EB04202D10026D6
:1003400010E03BE0254EB04201D101260AE0244EE8
:10035000B04201D1022605E0224EB04201D103266F
:1003600000E0042606FA08F62E43CCF808604D6833
:10037000DAF80060ED03554601D51E4300E09E43C8
:100380002E604D68DBF80060AD035D4601D51E436D
:1003900000E09E432E604D68DEF80060ED02754679
:1003A00001D51E4300E09E432E604D68AD020E4D08
:1003B0002E6801D51E4300E09E432E60641C102C65
:1003C000FFF444AFBDE8F88F0004014000001110B5
:1003D000001002400000014000080140000C0140F4
:1003E00000100140001401400C04014001488068E5
:1003F000704700004400002070B504001BD094F842
:100400003D00002520B984F83C50204600F0A4F9B6
:10041000242084F83D002068016821F0010101607A
:1004200000F0FCFD404A6168914201D83F4900E07C
:100430003F49884201D2012070BD3E492368B0FB8C
:10044000F1F159606368934206D94FF496735943AA
:100450004FF47A73B1FBF3F12368491C19626168A8
:10046000914210D84900401EB0FBF1F2521CC2F379
:100470000B02042A01D2042022E0B0FBF1F0401C60
:10048000C0F30B001CE0A368CBB301EBC10202EB8D
:100490000116421EB2FBF6F2521C42F480421205D3
:1004A00036D06BB301EBC10202EB0111401EB0FB71
:1004B000F1F0401CC0F30B0040F4804040F40040D9
:1004C0002168C861D4E90701084321680860D4E9BC
:1004D0000310084321688860D4E9050108432168B6
:1004E000C8602068016841F0010101602564202096
:1004F00084F83D00256384F83E50002070BD00E084
:1005000008E001EB4106421EB2FBF6F2521CC6E7C0
:100510000120D5E701EB4101401EB0FBF1F0401C8A
:10052000C0F30B00CAE70000A086010080841E0013
:1005300000093D0040420F002DE9FF4F83B09A466D
:10054000DDE9118793460446DDF84090FFF74EFF42
:10055000054694F83D00202872D1192301227B49D9
:100560002046009500F0D4FF0028F5D194F83C0017
:10057000012865D0012084F83C0020680168C90783
:1005800003D1016841F0010101602068016821F494
:1005900000610160222084F83D00402084F83E0084
:1005A00000262664C4F82490A4F82A806848E062F3
:1005B000608D2085CDE9007553465A462046049942
:1005C00000F02EFF28B1206C84F83C60042851D044
:1005D00075E0208DDFF87C8168B1012814D00228F5
:1005E000206801681ED041F4806101602068416983
:1005F000806900909BE020684169816900910168F1
:1006000041F40071016092E02068016821F480618A
:10061000016072B62068416981690091016841F406
:1006200000710AE041F40061016072B6206841691E
:1006300081690091016821F48061016062B676E011
:1006400081E0032850D801280BD002283B464FF008
:10065000000241462046009512D000F059FF70BBC1
:1006600013E02A463946204600F0C6FF30B1206C20
:10067000202824D0012007B0BDE8F08F20684BE08F
:1006800000F046FFD8B972B61BE02068016821F47B
:100690008061016072B620680169606A421C626212
:1006A0000170208D401E2085608D401E60853B4678
:1006B000002241462046009500F02AFF08B10320A1
:1006C000D9E72068016841F4007101602068016980
:1006D000606A421C62620170208D401E2085608D20
:1006E000401E608562B6C9E72A463946204600F0BA
:1006F00083FF0028BBD120680169606A421C6262E6
:100700000170208D401E2085608D401E6085206810
:100710004169C94349070AD40169606A421C62629F
:100720000170208D401E2085608D401E6085208DCB
:10073000002886D1202084F83D0084F83E6084F8AB
:100740003C60002097E7022095E7000002001000BF
:100750000000FFFF0400010000B50068104985B0EB
:1007600088421AD14FF4407000901220019003206B
:10077000039069460B48FFF75BFD0B48416841F069
:10078000E06141F0020141600848C16941F4001193
:10079000C161C06900F40010049005B000BD000004
:1007A00000540040000C01400000014000100240D5
:1007B000024881680278114481607047440000203B
:1007C000074810B5016841F010010160032000F0F6
:1007D0009DF8002000F006F800F024F8002010BD7D
:1007E0000020024070B50D4D04464FF47A71287810
:1007F000B1FBF0F00A490968B1FBF0F000F0E3FD4D
:1008000048B9102C07D200222146501E00F05EF895
:1008100000206C6070BD012070BD0000440000200D
:1008200050000020214808B5816941F00101816133
:10083000816901F001010091C16941F08051C161FC
:10084000C06900F080500090032000F05FF80022A3
:1008500011466FF00B0000F039F8002211466FF0DE
:100860000A0000F033F8002211466FF0090000F092
:100870002DF800221146501F00F028F800221146E2
:10088000101F00F023F800221146901E00F01EF801
:1008900000221146501E00F019F80548416821F069
:1008A000E06141F00071416008BD000000100240AD
:1008B0000000014000F01F0201219140400980002A
:1008C00000F1E020C0F8001170470000F0B40E4BBA
:1008D0001B680C46C3F30223C3F10705042D00D99E
:1008E0000425191D072901D2002300E0DB1E012683
:1008F00006FA05F1491E214099409E40761E164099
:100900003143F0BC00F092BF0CED00E0064900F06E
:10091000070208684FF6FF03184040EA0220034A26
:1009200010430860704700000CED00E00000FA057D
:1009300010B50C0605D501F07F0100EB4110283001
:1009400003E000EB411000F50A7099B232B10122C8
:100950008272C180190C0181002010BD00228272B8
:100960008180F9E7704700EB4112D0F85C04D26B4C
:1009700001F032BC00EB4112D0F85C04D2F83C220A
:1009800001F07FBC10B504460A460B0601F07F005B
:1009900004EB401101D5283101E001F50A7108701E
:1009A000D009487094F82804012809D0012084F85F
:1009B0002804206802F066F8002084F8280410BD9E
:1009C000022010BD70B50A460446090602F07F00F9
:1009D00003D504EB4011283103E004EB421101F58B
:1009E0000A7100258D700870D009487094F82804A9
:1009F000012809D0012084F82804206802F0F0F8CA
:100A000084F82854002070BD022070BD01F00F0151
:100A100000EB4110B0F8440280B2704770B5044654
:100A20000D460E0601F07F0004EB401101D5283180
:100A300001E001F50A710870E80948700A61CB709D
:100A400094F82804012809D0012084F8280420689B
:100A500001F0E8FE002084F8280470BD022070BD7B
:100A600070B50C4601F07F0500EB4511C1E98F23FD
:100A70000022C1F8442281F8292281F8285201F588
:100A80000A716206006802F005F9002070BD70B5B9
:100A90000D460446090605F07F0003D504EB40111E
:100AA000283103E004EB451101F50A7101228A7037
:100AB0000870E809487094F82804012807D084F8E1
:100AC0002824206802F0C1F8680602D006E002205F
:100AD00070BD04F22C41206802F080F8002084F8F8
:100AE000280470BD70B50C4601F07F0500EB451180
:100AF000C1E90F2300224A64012281F8292001F86C
:100B0000285F6206006802F0C5F8002070BD10B5CD
:100B10000446006802F0A0F9000402D5204600F067
:100B200095FE206802F098F940050CD5206830F851
:100B3000441F21F480610180204600F0EDF800217F
:100B4000204600F0FEF8206802F086F9400405D542
:100B5000206830F8441F21F480410180206802F0B1
:100B60007BF9800405D5206830F8441F21F400513A
:100B70000180206802F070F9C00414D5206830F8B4
:100B8000401F21F004010180206830F8401F21F04F
:100B900008010180204600F0CCF8206830F8441F9E
:100BA00021F480510180206802F056F900051AD521
:100BB000206830F8401F41F008010180206830F8BB
:100BC000441F21F400610180206830F8401F41F08B
:100BD00004010180206802F03FF9C043C00402D53F
:100BE000204600F0E3F8206802F036F9800508D5C9
:100BF000206830F8441F21F400710180204600F085
:100C00009CF8206802F028F9C00505D5206830F866
:100C1000441F21F48071018010BD00002DE9F041D6
:100C200086B004004FF0000504D094F82904002693
:100C300020B108E0012006B0BDE8F08184F8286406
:100C4000204600F04BF8032084F82904206801F0C6
:100C5000BEFF04F11001142288466846FFF762FACD
:100C600094E80F0001F00CFF0021206802F007F962
:100C70005FF0010704EB451080F8297000F8285F49
:100C80008581C670066146616D1C86610F2DF1D3AA
:100C90005FF0000004EB401181F8296281F828021E
:100CA000888681F82B62C1F83862C1F83C62401C2A
:100CB000C1F840620F28EDD3142241466846FFF781
:100CC00031FA94E80F0001F073FF84F8246084F88F
:100CD0002974206801F06AFF0020ACE708B50068BD
:100CE0000B49884212D10B48C16941F40001C1612E
:100CF000C069002200F40000009011461420FFF7A4
:100D0000E5FDBDE808401420FFF7D4BD08BD000094
:100D1000005C00400010024010B504460121D0F8EC
:100D20005C0401F099FBD4F85C04BDE8104001F0CC
:100D300062BBD0F85C0401F07DBBD0F85C0401F02C
:100D40007FBB10B5044690F8280401280BD0012081
:100D500084F8280484F82410206802F092F8002017
:100D600084F8280410BD022010BDD0F85C2400F2E5
:100D70002C41104601F083BB10B5044690F82804BE
:100D8000012810D0012084F8280401462046FFF7EE
:100D9000E9FD206801F008FF206802F050F800200B
:100DA00084F8280410BD022010BD000010B50446D0
:100DB000D0F85C0401F0B0FBA069002804D003481F
:100DC000016841F00601016010BD000010ED00E077
:100DD0002DE9F84305460078354CC00754D0E0694A
:100DE0000026C00008D4E06940F08050E061E0696E
:100DF000012600F0805000902E480168C90512D4E9
:100E00000168804641F480710160FFF7EFFA074600
:100E100005E000BFFFF7EAFAC01B642823D8D8F822
:100E20000000C005F6D5206A10F4407021D0A988D2
:100E300001F4407181421CD0206A1F49012220F434
:100E400040700A6000220A602062C00711D0FFF7DC
:100E5000CDFA074641F2883808E000BFFFF7C6FA2E
:100E6000C11B414502D90320BDE8F883206A8007F1
:100E7000F4D5206A696820F44070084320621EB1EE
:100E8000E06920F08050E0612878800705D560682F
:100E9000A96820F44040084360602878C00605D562
:100EA0006068E96820F48000084360600020DBE7A8
:100EB0000010024000700040400442422DE9F0471B
:100EC000DFF83C8105460E46D8F8000000F0070028
:100ED000B0420CD2D8F8001021F007013143C8F815
:100EE0000010D8F8000000F00700B04263D1287865
:100EF000444C800705D56068A96820F0F0000843DD
:100F000060602878C00745D06868012816D021683D
:100F1000022816D0890700294DDA616821F0030103
:100F200001436160FFF762FA6968074641F2883061
:100F300001290FD00229814619D027E021688903B1
:100F4000E9E78901E7E700BFFFF750FAC11B494510
:100F500001D918E081466068C0F381000128F3D10F
:100F600018E000BFFFF742FAC11B49450BD8606883
:100F7000C0F381000228F5D10CE000BFFFF736FA7C
:100F8000C11B494502D90320BDE8F087606810F015
:100F90000C0FF3D1D8F80010404601F00701B14220
:100FA0000BD9016821F0070131430160006800F0AE
:100FB0000700B04201D00120E6E72878400705D5B8
:100FC0006068E96820F4E060084360602878000702
:100FD00006D56068296920F4605040EAC10060606D
:100FE00000F02CF86168084AC1F30311515CC84055
:100FF000064908600020FFF7F5FB0020C4E7000069
:101000000020024000100240A22F000850000020E3
:10101000014800687047000050000020044805495E
:1010200000684968044AC1F30221515CC840704716
:101030005000002000100240B22F000812A185B01D
:101040000FC98DE80F0014A0144A0068049051687D
:10105000134801F00C03042B10D0082B0ED1C1F360
:101060008343C9031DF803000AD5516804AAC1F3DC
:101070004041515C0A4A5043B0FBF1F005B0704763
:1010800008494843FAE70000020304050607080977
:101090000A0B0C0D0E0F1010010200000010024090
:1010A00000127A0000093D002DE9F84F044600784F
:1010B000B94DC00748D06868C0F38100012807D047
:1010C0006868C0F38100022809D16868C00306D5AA
:1010D0002868800338D5606800286FD034E06068E5
:1010E000B0F5803F0BD010B1B0F5A02F11D028681B
:1010F00020F480302860286820F4802002E02868EE
:1011000040F480302860606888B1FFF76FF90646C8
:1011100009E0286840F480202860F0E7FFF766F9CE
:10112000801B642875D828688003F7D50CE0FFF78A
:101130005DF9064605E000BFFFF758F9801B6428FB
:10114000F0D828688003F7D42078944E80074FF0B9
:1011500001094FF000083BD5686810F00C0F07D06C
:101160006868C0F38100022809D16868C00306D40A
:101170002868800714D5206901281FD110E0206954
:10118000B0B1C6F80090FFF731F9074605E000BF9F
:10119000FFF72CF9C01B0228C4D828688007F7D5B0
:1011A0002868616920F0F80040EAC10028600FE07B
:1011B000C6F80080FFF71AF9074606E0E9E000BF2D
:1011C000FFF714F9C01B022823D828688007F7D43A
:1011D000207800072CD57248A169D9B1C0F80090D9
:1011E000FFF704F9074604E0FFF700F9C01B0228E7
:1011F0000FD8686A8007F7D56A484FF4FA5100683B
:10120000B0FBF1F0009000BF0098411E0091FAD2AF
:101210000EE080E0C0F80080FFF7E8F8074604E041
:10122000FFF7E4F8C01B022875D8686A8007F7D476
:101230002078400760D5E8690027C00008D4E86935
:1012400040F08050E861E869012700F0805000908C
:1012500055480168C90513D40168834641F480717B
:101260000160FFF7C3F8824606E000BFFFF7BEF853
:10127000A0EB0A0064284ED8DBF80000C005F5D5C5
:10128000E06801280AD008B1052813D0286A20F0A8
:1012900001002862286A20F0040002E0286A40F079
:1012A00001002862E06841F2883B98B1FFF79EF8A0
:1012B00082460BE0286A40F004002862EEE700BF97
:1012C000FFF794F8A0EB0A0159455AD8286A80071D
:1012D000F6D50CE0FFF78AF8824605E0FFF786F8BE
:1012E000A0EB0A0159454CD8286A8007F6D41FB1F3
:1012F000E86920F08050E861E06988B36968C1F36B
:101300008101022945D00228C6F8608004D0FFF789
:101310006DF8044638E034E0FFF768F8074604E06B
:10132000FFF764F8C01B02282BD828688001F7D487
:10133000206AB0F5803F05D16868A16820F40030CC
:1013400008436860D4E908010843696821F474110E
:1013500008436860C6F86090FFF748F8044606E066
:1013600015E000BFFFF742F8001B022809D82868E3
:101370008001F7D50BE000BFFFF738F8001B02280B
:1013800002D90320BDE8F88F28688001F4D400203A
:10139000F8E70120F6E7000000100240000042429A
:1013A0008004424250000020007000404FF0E021D5
:1013B0000428086903D020F004000861704740F059
:1013C0000400FAE7704710B5401EB0F1807F01D3EA
:1013D000012010BD4FF0E02460610F21601700F084
:1013E00025FA0020A06107202061002010BD10B563
:1013F000FFF7E8FF10BDFEE701684A69D2435205D6
:101400000CD46FF480624A6104210164002140F829
:10141000301F202242730173012070470020704763
:101420002DE9F84F0446006889460B9D01689846EF
:10143000174641F4806101602068016841F48071C1
:10144000016000954FF0011A0022514620460A9B88
:1014500000F05EF8F0BB216809F0FE0008610AF1B7
:10146000010B2B46594620460A9A00F081F818B124
:10147000206C042812D03AE020684169806900900D
:101480002A4620460A9900F0E8F850B1206C04285A
:101490002DD12068016841F4007101600120BDE890
:1014A000F88FFEB2B8F1010F09D02168380A08613F
:1014B0002A4620460A9900F0D0F80028E6D1206894
:1014C00006612A4620460A9900F0C7F80028DDD1B7
:1014D000206800E00BE0016841F480710160009534
:1014E0000022514620460A9B00F012F808B1032062
:1014F000D5E7216809F0FF0040F0010008612B46A4
:10150000594620460A9A00F033F80028B0D1C6E7C1
:101510002DE9F0471E4690460D460446C1F30747A5
:10152000DDF8209012E0701C10D02EB1FEF75EFFA7
:10153000A0EB0900B04209D9002044F8300F202167
:101540006173A07320730320BDE8F0872068012F2A
:101550000AD0806925EA00000004000C06D00021B2
:101560004145E0D00020EFE74069F3E70121F7E7CC
:101570002DE9F0479A4691460D46044600264FF065
:101580002008C1F307472AE020684069C0434005AE
:1015900012D42068016841F40071016021686FF481
:1015A0008060486104202064266384F83D8084F8CC
:1015B0003C600120BDE8F087B9F1FF3F0FD0B9F1E1
:1015C000000F05D0FEF712FFA0EB0A01494506D92E
:1015D00044F8306F84F80D8026730320EAE7206812
:1015E000012F07D0D0F8180025EA00000004000CF5
:1015F000E0D0C9E74069F7E72DE9F04100259046C2
:101600000E460446202721E04069C043C0060CD4A2
:1016100021686FF0100048612564256384F83D70EF
:1016200084F83C500120BDE8F0812EB1FEF7DEFECB
:10163000A0EB0800B04209D954F8400F40F0200058
:1016400044F80409677025700320ECE720684169BD
:10165000C9434906D8D40020E5E770B516460D46C3
:1016600004461AE02046FFF7C7FE08B1012070BD0E
:10167000681C12D025B1FEF7B9FE801BA8420CD918
:1016800054F8400F40F0200044F81009002020607A
:10169000202161732073032070BD20684069C0431E
:1016A0000006DFD4002070BD2DE9FE4F884683463A
:1016B0001F4616464FF4FA7A782A0ED84FF6FF7175
:1016C00001EA4201CDE90031CDF808A002234246EB
:1016D00059461C48FEF730FF30E0F5B200244FF0C9
:1016E000780926E0782D11D9C4EB041007EBC0026D
:1016F000F0238DE80C0408EBC00082B202235946A7
:101700001048FEF719FF783DEDB210E0C4EB04106D
:1017100007EBC0036900CDE9003108EBC00082B2DD
:10172000CDF808A0022359460648FEF705FF641CC1
:10173000A4B2B6FBF9F0401CA042D3D20020BDE811
:10174000FE8F00006C01002008B500BF13488069BF
:1017500040F02000114988610846806900F02000AF
:10176000009000BF00BF00BF0846806940F0040041
:1017700088610846806900F00400009000BF00BF47
:1017800000BF0846806940F008008861084680690B
:1017900000F00800009000BF00BF08BD001002402C
:1017A00010B50C480C4908600C48486000210A48F4
:1017B0008160C1604FF4804101610021416181611C
:1017C000C1610162FEF718FE18B1FB2104A001F00F
:1017D00072FB10BD005400406C010020801A06000E
:1017E0002E2E2F5372632F6D61696E2E63000000E1
:1017F00010B500220849094800F0B9FC084907481B
:1018000000F0B7FE0749054800F014FBBDE81040A2
:10181000024800F0FBBE000000000020C0010020D4
:101820003401002034000020FEE770470907090E4C
:10183000002806DA00F00F0000F1E02080F8141D07
:10184000704700F1E02080F8001470472DE9FC5F3C
:101850004FF000080446ADF80480ADF8008048F66B
:101860000F7B4FF002094FF4806692E1BDF804103F
:1018700011F00F072BD030F82710ADF80010BDF88D
:101880000010090478D530F8272040F68F710A40FF
:1018900020F8272004EB471595F8320205F50A7564
:1018A0000028206869D0297830F8212052047DD59D
:1018B000B0F8503009EBC101194406EB4101415A1F
:1018C000C1F309015FEA010A71D0EA88D0E0BDF8EE
:1018D0000410C9062AD4018801EA0B01018020689E
:1018E00004F12805B0F850202B7809EBC30111440E
:1018F00006EB4101405AC0F309006064E16B084403
:10190000E06300212046FFF72EF894F82400002819
:10191000ABD0A8690028A8D194F82400216840F031
:101920008000A1F84C0084F8248032E1018804F59D
:101930000A75ADF80010BDF8001009051ED5B0F805
:1019400050302978062202EBC101194406EB41010F
:10195000405A04F22C41C0F30903EB61AA882068C5
:1019600001F07EFA2068018840F68F7211400180F4
:101970002046FFF7FAF90CE1A0E055E0BDF80010B1
:101980000904D2D5028840F68F710A40028020688F
:10199000B0F850302978062202EBC101194406EB59
:1019A0004101405A83059B0DEB6101E051E063E08A
:1019B00008D0AA886969206801F052FAE969686963
:1019C0000844686100212046FEF7D4FF2068B0F883
:1019D0005010891D06EB4101014428693E280CD9AD
:1019E000C0F34F12C00601D1521E92B24FF6FF70E3
:1019F00000EA822040F4004009E0C0F34F02C00733
:101A000001D0521C92B24FF6FF7000EA82200860AB
:101A1000216808884BF68F72104080F4405048F2DD
:101A2000800210430880B4E0B0F850202B780621E3
:101A300001EBC301114406EB4101415AC1F3090115
:101A40005FEA010A24D0AA885346696901F008FABE
:101A50001EE0B0F85020062303EBC101114406EB51
:101A60004101415AC1F309015FEA010A04D02A8900
:101A70005346696901F0F4F92978206830F821307B
:101A800048F68F72134048F2C002134320F8213009
:101A9000E96901EB0A00E861696901EB0A026A6120
:101AA000AB6913B12869504504D929782046FEF75F
:101AB00061FF03E029782046FEF7D2FFBDF8000061
:101AC000000666D5206804EB471530F8271001EAB8
:101AD0000B0120F8271095F83200283500282068DF
:101AE00012D0297830F82120B0F8503052061ED597
:101AF00009EBC101194406EB4101405A83059B0DD6
:101B0000EB6124D0EA881EE0B0F850302A7809EB67
:101B1000C201194406EB4101405A83059B0DEB615C
:101B200021D0AA886969206801F0B1F91BE006227A
:101B300002EBC101194406EB4101405A83059B0D9C
:101B4000EB6104D02A896969206801F0A0F929783D
:101B5000206830F8212048F68F731A404CF2800339
:101B60001A4320F821202068B0F850202B7809EB88
:101B7000C301114406EB4101405AC0F30900E8617A
:101B800069690A186A612978AB69204663B1FEF772
:101B9000A9FF2068B0F84410ADF8041009043FF51F
:101BA00065AE0020BDE8FC9FFEF7DDFEF1E7704763
:101BB000704710B5FEF7FCFDBDE81040FFF717BCFD
:101BC00010B594B001200A9000040B9000200C90F6
:101BD00001200E9002201190C1031291C1041391B3
:101BE0000AA8FFF761FA18B1C8211BA001F063F938
:101BF0000F20059002200690002007904FF480608F
:101C0000089000200990012105A8FFF757F918B1A5
:101C1000D62111A001F04FF910200190800404900A
:101C200001A8FFF7D5F818B1DD210BA001F043F9A9
:101C3000FFF7EEF94FF47A71B0FBF1F42046FFF7AD
:101C4000C2FB0420FFF7B2FB00221146501EFEF734
:101C50003DFE14B010BD00002E2E2F5372632F6D69
:101C600061696E2E630000000D48016841F00101BA
:101C7000016041680B4A1140416001680A4A114005
:101C80000160016821F480210160416821F4FE01B6
:101C900041604FF41F0181600449C0030860704730
:101CA000001002400000FFF8FFFFF6FE08ED00E024
:101CB000D0F8180220B10021C0F81412084670476D
:101CC0000220704770B50546D0F8184200F00EFBB0
:101CD000C4F80C02D5F8180248B1D5F81C12D4F893
:101CE0000402CA6804F503719047002070BD022009
:101CF00070BD70B504460025812100F05DFA012118
:101D0000204600F059FA8221204600F055FAD4F816
:101D1000180250B1D4F81C0204F5067440688047DC
:101D2000206800F079FD00202060284670BD10B5C5
:101D3000D0E9864159B194F80002FF2807D08B689A
:101D400094F8012221469847FF2084F800020020E1
:101D500010BD00000A210180004870475C0000208F
:101D60004321018000487047AC00002043210180DE
:101D700000487047680000204321018000487047F8
:101D8000F00000202DE9F0410446007C00254FF4CE
:101D9000007670B3402302228121204600F008FB28
:101DA000402302220121204600F002FB08230322E7
:101DB0008221204600F0FCFA4FF4077000F02EFD5F
:101DC000C4F81802F0B10746D4F81C020068804736
:101DD0000020C7F81402C7F81802207CD7F80422A4
:101DE00090B140230121204600F0F5FA2846BDE8D5
:101DF000F081FFE7334602228121204600F0D8FA25
:101E00003346CEE70125F1E73346EBE710B5D0F8CE
:101E1000181269B1027C002AD1F8042205D04023AF
:101E2000012100F0D8FA002010BD4FF40073F7E74D
:101E3000022010BD02460220002902D00020C2F874
:101E40001C127047D0F81802C0F804120020704726
:101E5000D0F81802C0F81022C0F80812002070470D
:101E600070B50646D0F8185208780C4610F060019C
:101E700021D0202927D1E288AAB10006607807D5B1
:101E8000D6F81C128B6829469847E288294617E045
:101E900085F80002A07985F80102E28829463046DB
:101EA00000F038F80FE0D6F81C12607800228B683A
:101EB0002146984707E060780A2804D103490122A7
:101EC000304600F041F8002070BD000058000020AE
:101ED00010B5D0F8142252689047002010BD134668
:101EE00010B50A46002100F076FA002010BD134616
:101EF00010B50A46002100F018FB002010BD10B5F7
:101F00000446802100F0E8FA2046BDE81040002198
:101F100000F0E2BA10B50323C0F80821C0F8F4318C
:101F2000C0F80C2113460A46002100F054FA0020A4
:101F300010BD10B505210023C0F8F4111A4619464A
:101F400000F049FA002010BD10B502238261C0F8EC
:101F5000F431C26113460A46002100F0E6FA00207F
:101F600010BD10B504210023C0F8F4111A4619461B
:101F700000F0DBFA002010BD10B50A46024903A0AC
:101F800000F0D2F8004810BD640A0020434443200A
:101F9000436F6E6669670000122008800048704732
:101FA0002000002010B50A46024903A000F0BCF84A
:101FB000004810BD640A002043444320496E746504
:101FC0007266616365000000042008800048704765
:101FD0001C00002010B50A46024903A000F0A4F836
:101FE000004810BD640A0020416E6E6127732054C2
:101FF0006865726D616C2043616D657261000000FF
:1020000010B50A46024903A000F08EF8004810BD42
:10201000640A0020546865726D616C2043616D65CF
:102020007261000010B50A46024903A000F07CF876
:10203000004810BD640A002030303030303030307D
:102040003030314100000000F8B5044648880D46A4
:10205000010A08294BD2DFE801F04A0409174A4A6D
:102060004048D4F81012207C0A6832E0207C022616
:102070000028D4F8140205D0C16A68468847014692
:10208000467041E0816AF8E7C0B206282FD2DFE847
:1020900000F003080D12171CD4F81012207C4A68B7
:1020A00017E0D4F81012207C8A6812E0D4F81012DD
:1020B000207CCA680DE0D4F81012207C0A6908E080
:1020C000D4F81012207C4A6903E0D4F81012207C66
:1020D0008A6969469047014616E0207C38B9D4F8F1
:1020E0001402416B68468847F5E7207C20B12946F9
:1020F0002046FFF704FFF8BDD4F81402016B6846D0
:102100008847014607204870BDF800000028F2D03B
:10211000EA88002AEFD0824200D90246ADF80020BA
:102120002046FFF711FFF8BD70B5002300281DD031
:102130000446002502E06D1CEDB2641C2678002EDA
:10214000F9D1022404EB45041480CC545B1C032217
:10215000CA5400245B1C06E0CA545B1CDAB28C54DF
:10216000521CD3B2401C0278002AF5D170BD10B5C4
:1021700080B1D0F8143213B10023C0F8143209B181
:10218000C0F81012012180F8FC11027000F0B2F8C2
:10219000002010BD022010BD10B50024D0F8200290
:1021A000FEF710FC30B1012801D0022801D0022432
:1021B00000E00124204610BD10B50024D0F8200214
:1021C000FEF7E0FB30B1012801D0022801D0022443
:1021D00000E00124204610BD2DE9F04117460446D9
:1021E00041B1D4F8140242698AB394F8FC0103287F
:1021F00042D043E0D4F8F411002504F11400022980
:1022000033D1D0E902639E4207D9F31A83609AB2B0
:1022100039462046FFF76BFE12E04068B0FBF3F151
:1022200003FB1101A1B9984212D3D4F8F8118842E6
:102230000ED2002211462046FFF759FEC4F8F8518D
:1022400000231A461946204600F0C5F80DE012E0BA
:10225000D4F81402C16829B194F8FC01032801D113
:10226000204688472046FFF764FE94F800020128C4
:1022700004D184F8005201E0204690470020BDE8D8
:10228000F08170B51546044641B1D4F81402826954
:102290003AB394F8FC01032824D025E0D4F8F411D3
:1022A00004F5827003291FD1D0E902218A420BD99B
:1022B000531A83600846834200D303469AB22946E4
:1022C0002046FFF70CFE0FE0D4F81402016929B193
:1022D00094F8FC01032801D1204688472046FFF7E7
:1022E00040FE01E020469047002070BDD0F820025B
:1022F000FEF78CBB10B520490446C1F85C04C0F859
:1023000020121E48086008204860022088600320D0
:10231000C86000208861C86108620846FEF77EFC3C
:1023200020B14FF4977116A000F0C5FD0022D4F83B
:1023300020021823114604F50874FEF7F9FA582311
:10234000002280212068FEF7F3FAC02300228121B9
:102350002068FEF7EDFA4FF488730022012120680F
:10236000FEF7E6FA4FF48073002282212068FEF720
:10237000DFFA002010BD000004060020005C0040D1
:102380002E2E2F5372632F757362645F636F6E66B8
:102390002E6300000A06D0F8200201F07F0100EB56
:1023A000411002D590F82A00704790F82A02704731
:1023B00070B51D4613460024D0F820022A46FEF7C9
:1023C0002DFB30B1012801D0022801D0022400E009
:1023D0000124204670BD10B50024D0F82002FEF77D
:1023E0003FFB30B1012801D0022801D0022400E0D7
:1023F0000124204610BD70B500220446402311463A
:10240000FFF7D6FF40252B46002280212046C4F846
:102410001051FFF7CDFF0120256284F8FC01D4F8AC
:10242000180228B1D4F81402217942682046904756
:10243000002070BD90F8FD1180F8FC11002070475D
:1024400010B590F8FC11032904D1D0F81412C96911
:1024500001B18847002010BD01740020704710B5FD
:102460000024D0F82002FEF76CFC30B1012801D026
:10247000022801D0022400E00124204610BD70B5DE
:10248000044600F50270054600F05FF80120C4F82C
:10249000F401B4F80E02C4F8F80194F8080210F040
:1024A0001F010AD001290DD0022910D000F08001AF
:1024B000204600F011F8002070BD2946204600F0AB
:1024C000AAF8F8E72946204600F08CF9F3E72946F8
:1024D000204600F019F9EEE710B50024D0F82002EC
:1024E000FEF7D5FA30B1012801D0022801D002242C
:1024F00000E00124204610BD10B50024D0F82002D1
:10250000FEF73AFC30B1012801D0022801D00224A4
:1025100000E00124204610BD90F8FC1180F8FD1168
:10252000042180F8FC110020704710B50024D0F879
:102530002002FEF7D7FA30B1012801D0022801D0DD
:10254000022400E00124204610BD0A7802704A7877
:1025500042708A78CB7802EB032242800A794B7969
:1025600002EB032282808A79C97902EB0121C180C2
:1025700070470246002011B1C2F8141270470220C1
:10258000704710B5D0F8142202241AB1126890478F
:1025900000B90024204610BD70B50E461A4D89784A
:1025A00004462970012928D894F8FC01022802D099
:1025B000032822D105E099B10320616084F8FC0171
:1025C00009E091B1606888420AD0C1B22046FFF7A5
:1025D0007FFC297861602046FFF7D3FF02280CD0EA
:1025E0002046BDE87040FFF7BCBC022084F8FC0127
:1025F00020466160FFF76CFCF2E731462046BDE8FB
:102600007040FFF77CBC00005400002010B5FFF7BD
:1026100073FF002010BD2DE9F04100264B78012505
:1026200032460A2B43D2DFE803F03C5842514208BD
:1026300005422A27FFF708FD63E004468888C8B9E9
:10264000C888B8B9887800F07F0794F8FC0103289F
:1026500010D084F8FE7139462046FFF700FF20466F
:10266000FFF77FFC1FB1022084F8FC0149E084F8E9
:10267000FC5146E020461AE0FFF78EFF41E0CB8890
:10268000012B14D190F8FC31022B02D0032B0ED178
:1026900004E08260012200F1080114E00122011D22
:1026A00011E090F8FC21022A04D0032A02D0FFF79F
:1026B00026FC26E0C560D0F8041209B10321C160F0
:1026C000022200F10C01FFF73FFC1AE004464888A3
:1026D000012816D1C4F804520BE0044690F8FC011E
:1026E000022801D00328C5D14888012809D1C4F89F
:1026F0000422D4F814028268204690472046FFF74F
:1027000030FC3046BDE8F08170B50D4604462878AF
:1027100000260979C0F34110012806D06878A0B3DB
:1027200001281FD003283FD107E0D4F8140229461E
:10273000826820469047002070BD94F8FC01022872
:1027400017D003282CD1688828B921B1802902D05C
:102750002046FFF7C1FED4F81402294682682046BD
:10276000904713E094F8FC01022802D0032817D107
:1027700003E0C9B180291BD116E06888A0B94806DA
:1027800004D02046FFF708FDE5E703E02046FFF709
:10279000E8FB09E094F8FC01022807D003280BD0DD
:1027A00029462046FFF7ABFB304670BD4806FBD0FC
:1027B0002046FFF791FEF7E7080601F07F0004EBE3
:1027C000001501D5143501E005F582752046FFF7A7
:1027D000E1FD00B101202860022229462046FFF7D2
:1027E000B3FBE1E770B5054690F8FC010C46032801
:1027F0000DD1207901280AD8D5F81402826828461C
:102800009047E08830B92846FFF7ABFB02E0284646
:10281000FFF775FB002070BD70470000004870474F
:10282000E40300202DE9F047CC780A7848F68F13AE
:1028300034B1012C6DD0022C08D0032C13D10BE045
:1028400030F822401C4044F400730AE030F8224083
:102850001C4020F8224006E030F822401C4044F49E
:10286000C06320F822300C7830F8245048F68F727C
:10287000154048F280031D43254320F824508D7AEB
:1028800048F6BF7904274BF68F7A48F2C0044CF221
:102890008006EDB30D7830F825C048F280180CEAB8
:1028A000020C4CEA080C20F825C0CD88B0F850C0C6
:1028B00025F0010591F800800CEBC80C00EB4C0CE6
:1028C000CCF800540D89B0F850C025F0010591F8FE
:1028D000008007EBC807674400EB4707C7F80054C0
:1028E0004D78002D0D7830F825704FEA47477DD0A0
:1028F000002F05DA30F825701740374320F825708F
:102900000D7830F825707F0608D530F8257001E085
:1029100024E01DE01740274320F825700C7830F89C
:1029200024501540354320F824500C7830F82420EA
:1029300002EA09021A4320F824200A7830F822100B
:1029400001EA0A01194320F822100020BDE8F087AF
:1029500030F822401C4044F4806382E74D78F5B1A2
:102960008D88B0F8506025F001050F7806EBC7069A
:1029700000EB4606C6F800540D7830F82560760660
:1029800005D530F825601640264320F825600A78E2
:1029900030F8221001EA090181F02001D2E78C8889
:1029A000B0F8505024F0010491F800C007EBCC07B8
:1029B0003D4400EB4505C5F80044B0F850400D78A3
:1029C000062707EBC5052C4400EB44070C694FF6BE
:1029D000FF7C07F580673E2C0CD9C4F34F15E40645
:1029E00001D16D1EADB20CEA852400E01EE044F476
:1029F000004407E0C4F34F05E40701D06D1CADB2FD
:102A00000CEA85243C600C7830F824506D0405D520
:102A100030F824501540354320F824500A7830F817
:102A2000221001EA0A0181F440518BE7002F05DAF8
:102A300030F825701740374320F825700D7830F8AE
:102A40002560760605D530F825601640264320F827
:102A500025600E7830F826501540254320F8265082
:102A60000C7830F8242002EA0A0282F440521A4319
:102A700020F824200A7830F8221001EA090161E7E1
:102A8000002070472DE9F04391F80A8091F801C0C9
:102A90000A7848F6BF774BF68F7948F2800348F200
:102AA000C0054CF2800648F68F74B8F1000F2ED0A6
:102AB000BCF1000F30F822C04FEA4C4C4ED0BCF1B4
:102AC000000F07DA30F822C00CEA040C4CEA060CBE
:102AD00020F822C00A7830F822C05FEA4C6C07D593
:102AE00030F822C00CEA040C4CEA050C20F822C095
:102AF0000A7830F822502540354320F822500C78CF
:102B000030F824203A401A4320F824201BE0BCF17E
:102B1000000F0ED030F82260760605D530F822601E
:102B200026402E4320F822600A7830F822103940DF
:102B30000EE030F822506D0405D530F822502540C3
:102B4000354320F822500A7830F8221001EA0901B2
:102B5000194320F822100020BDE8F083BCF1000FDB
:102B600007DA30F822C00CEA040C4CEA060C20F814
:102B700022C00A7830F82260760605D530F8226047
:102B800026402E4320F822600E7830F8262022407E
:102B90002A4320F826200C7830F8242002EA090283
:102BA0001A4320F82420BFE7002070470020704718
:102BB00000B50121A0F840100021A0F84010A0F8B5
:102BC0004410A0F8501000F03AF9002000BD30F891
:102BD000401F21F43D4101800020704700207047D4
:102BE00030B54D780A78002D48F68F7430F82250B1
:102BF00048F2800312D06D0607D530F822502540E8
:102C000048F2C004254320F822500A7830F82210F8
:102C100048F6BF74214081F0300111E06D0407D502
:102C200030F8225025404CF28004254320F82250F1
:102C30000A7830F822104BF68F74214081F440510D
:102C4000194320F82210002030BD10B50A7848F250
:102C5000800352B14978002930F8221010D048F68C
:102C6000BF74214081F010010FE001884BF6BF7264
:102C7000114081F4805181F010011943018007E077
:102C80004BF68F74214081F48051194320F82210B3
:102C9000002010BD2DE9F0410D460646896995F8E2
:102CA00001C00023AA7A022728690C4648F280084E
:102CB000BCF1010F05D0814252D90446081AA8611F
:102CC0004FE0814203D90446081AA86100E0AB61D5
:102CD0007AB1287836F820104906B6F8501007EB7C
:102CE000C000084406EB4000C0F8004412D52A8911
:102CF00011E0A3B2AA883046696900F0C8F8B6F8B6
:102D00005000297807EBC101084406EB4000C0F8E9
:102D100000441CE0EA88A3B23046696900F0B7F8C5
:102D2000687848F68F7110B1012807D00FE0287835
:102D300036F820200A4048F2C00105E0287836F82D
:102D400020200A404CF280010A4326F820202978EE
:102D500036F8210048F6BF72104080F0300067E07E
:102D6000AB6106234FF6FF701AB1BCF1000F1BD008
:102D700056E0B6F850102A783E2C03EBC2021144FC
:102D800006EB410202F5806239D9C4F34F11E30624
:102D900032D000BF00EA812040F4004002E000BFD2
:102DA00000EA812010603BE0B6F850102A783E2CF3
:102DB00007EBC202114406EB410202F580620BD917
:102DC000C4F34F115FEAC46C01D1491E89B200EA15
:102DD000812141F4004108E0C4F34F015FEAC47C63
:102DE00001D0491C89B200EA81211160697800296B
:102DF000BFD001290AD013E0491E89B2CAE7C4F343
:102E00004F01E307CCD0491C89B2C9E7B6F850009E
:102E1000297807EBC101084406EB4000C0F80044E4
:102E2000297836F821004BF68F72104080F440501C
:102E300040EA080026F821000020BDE8F08130F8C3
:102E4000401F41F43F410180002070470148FDF7D9
:102E50005EBE000004060020B0F844007047000089
:102E60005B1C00EB42005B0800F5806006D000BFF1
:102E700030F8042B21F8022B5B1EF9D1704700209B
:102E8000704711B98021A0F84C100020704710B590
:102E90005B1C00EB42005B0800F5806009D011F874
:102EA000012B5B1E11F8014B42EA042220F8042B8F
:102EB000F5D110BDFEE700BFFEE702E008C8121F13
:102EC00008C1002AFAD170477047002001E001C113
:102ED000121F002AFBD17047ADF5427DFDF770FC53
:102EE000FEF76EFEFEF730FCFEF75AFCFEF780FCA4
:102EF0000A20FDF78BF900BF00BF00BF00BF00BF75
:102F000000200190009002AB642242F2074166204B
:102F1000FEF7CAFB0A20FDF779F900240BE042A86E
:102F200000EB440342F20740204481B204226620B1
:102F3000FEF7BAFBA41C642CF1DD0A20FDF766F94C
:102F400000240BE082A800EB440342F20740204437
:102F500081B202226620FEF7A7FB641C642CF1DD1F
:102F600000201AE042A931F8101082AA32F810208D
:102F7000914204D0BDF80410491C89B2019102A904
:102F800031F8101082AA32F81020914204D0BDF816
:102F90000010491C89B20091401C6428E2DD00BF8A
:102FA000FEE7000000000000000001020304060725
:102FB000080900000000010203040000DC2F0008E3
:102FC000000000206C0100006C0100089C3000082B
:102FD0006C010020FC130000CA2E000813991F1B6F
:102FE00008C9041AD5041301201B0825041A790CFA
:102FF0001AA5041704030904120114020202164060
:10300000830440572602010203011BCD0134190439
:103010001AC5041AF104191311821084A24A041368
:103020000A0632022A40201C0902433F111CC0320A
:10303000091F1B01020B13052416100105240110A2
:10304000090104240202052406170107058203086A
:103050001C10090475320A1D07050102432C0705DF
:1030600081070938442A40072A8107112B090744A0
:103070000A2204440A16FF4413851D1408F31C1485
:1030800008611E42081A2F101AB1101AC504C11A7D
:0C3090006D181A61041A79041A55040026
:04000005080000ED02
:00000001FF
